:100000000C9474000C9495000C9495000C9495003D
:100010000C9495000C9495000C9495000C9495000C
:100020000C9495000C9495000C9495000C949500FC
:100030000C9495000C9495000C9495000C949500EC
:100040000C9495000C9495000C9495000C949500DC
:100050000C9495000C9495000C9495000C949500CC
:100060000C9495000C9495000C9495000C949500BC
:100070000C9495000C9495000C9495000C949500AC
:100080000C9495000C9495000C9495000C9495009C
:100090000C9495000C9495000C9495000C9495008C
:1000A0000C9495000C9495000C9495000C9495007C
:1000B0000C9495000C9495000C9495000C9495006C
:1000C0000C9495000C9495000C9495000C9495005C
:1000D0000C9495000C9495000C9495000C9495004C
:1000E0000C9495000C94DD0111241FBECFEFD1E2DA
:1000F000DEBFCDBF00E00CBF12E0A0E0B2E0E6EE54
:10010000FBE000E00BBF02C007900D92A032B107E8
:10011000D9F722E0A0E2B2E001C01D92A632B207F8
:10012000E1F70E9497000C94F1050C940000CF9326
:10013000DF93CDB7DEB761970FB6F894DEBF0FBE81
:10014000CDBF0E94F60188E0898381E091E021E043
:1001500031E0F9012081322F298120952323FC01F0
:10016000208382E091E022E031E0F90130812981B1
:10017000232BFC01208380E091E0FC0190818981A8
:10018000982381E0992309F080E0882F90E09B83F9
:100190008A8382E091E0FC018081882F90E02B81AE
:1001A0002F932A812F93292F2F938F938EE092E004
:1001B000892F8F938EE092E08F930E9423030F90FC
:1001C0000F900F900F900F900F9080E090E0AAEFAB
:1001D000B3E48C839D83AE83BF8320E030E04AE7A5
:1001E00055E46C817D818E819F810E948E02DC01AD
:1001F000CB0188879987AA87BB8720E030E040E859
:100200005FE3688579858A859B850E94080288233B
:100210002CF481E090E09D878C873FC020E03FEF89
:100220004FE757E4688579858A859B850E94890216
:1002300018164CF520E030E040E251E46C817D81FD
:100240008E819F810E948E02DC01CB01BC01CD0119
:100250000E940D02DC01CB019D878C870FC080E9D5
:1002600091E09F878E878E859F850197F1F79F8705
:100270008E878C859D8501979D878C878C859D8534
:10028000892B69F714C0688579858A859B850E94CA
:100290000D02DC01CB019D878C878C859D85998B18
:1002A000888B888999890197F1F7998B888B63CF1F
:1002B000CF93DF931F921F92CDB7DEB79A838983C6
:1002C00085EC90E029813A81232F3327FC0120839C
:1002D00084EC90E02981FC01208382EC90E026E010
:1002E000FC01208381EC90E028E9FC0120830000E0
:1002F0000F900F90DF91CF910895CF93DF931F92CE
:10030000CDB7DEB78983000080EC90E0FC018081EE
:10031000882F90E080729927892BB1F386EC90E0CA
:100320002981FC01208300000F90DF91CF91089577
:10033000CF93DF93CDB7DEB7000080EC90E0FC01F7
:1003400080818823D4F786EC90E0FC018081DF91E6
:10035000CF910895CF93DF931F92CDB7DEB7198267
:1003600080EC90E0FC018081882314F481E0898393
:1003700089810F90DF91CF910895CF93DF931F92E2
:100380001F92CDB7DEB79A8389830BC089819A818A
:10039000FC0180810E947D0189819A8101969A8366
:1003A000898389819A81FC018081882379F7000003
:1003B0000F900F90DF91CF910895CF93DF9300D0EE
:1003C000CDB7DEB789837B836A8389818A3019F44C
:1003D0008DE00E947D0189810E947D0180E090E096
:1003E0000F900F900F90DF91CF910895CF93DF93EF
:1003F000CDB7DEB780E092E0909323028093220293
:1004000082E390E00E9458010000DF91CF910895AF
:100410000E943C0208F481E008950E94680288F07E
:100420009F5798F0B92F9927B751B0F0E1F0660FB8
:10043000771F881F991F1AF0BA95C9F714C0B130F9
:1004400091F00E948202B1E008950C948202672F1D
:10045000782F8827B85F39F0B93FCCF38695779528
:100460006795B395D9F73EF4909580957095619511
:100470007F4F8F4F9F4F0895990F0008550FAA0B7C
:10048000E0E8FEEF16161706E807F907C0F01216A7
:100490001306E407F50798F0621B730B840B950BAA
:1004A00039F40A2661F0232B242B252B21F40895FF
:1004B0000A2609F4A140A6958FEF811D811D08959C
:1004C00057FD9058440F551F59F05F3F71F0479505
:1004D000880F97FB991F61F09F3F79F087950895EA
:1004E000121613061406551FF2CF4695F1DF08C009
:1004F000161617061806991FF1CF86957105610526
:1005000008940895E894BB2766277727CB0197F9CD
:1005100008950E943C0208F48FEF08950E94A10202
:100520000C9412030E94040338F00E940B0320F085
:10053000952311F00C94FB020C94010311240C94EC
:1005400083020E94600270F3959FC1F3950F50E003
:10055000551F629FF001729FBB27F00DB11D639F75
:10056000AA27F00DB11DAA1F649F6627B00DA11D1B
:10057000661F829F2227B00DA11D621F739FB00DC1
:10058000A11D621F839FA00D611D221F749F332731
:10059000A00D611D231F849F600D211D822F762FCA
:1005A0006A2F11249F5750409AF0F1F088234AF0A7
:1005B000EE0FFF1FBB1F661F771F881F9150504013
:1005C000A9F79E3F510580F00C94FB020C94830226
:1005D0005F3FE4F3983ED4F3869577956795B7959A
:1005E000F795E7959F5FC1F7FE2B880F911D9695B4
:1005F000879597F9089597F99F6780E870E060E024
:1006000008959FEF80EC089500240A9416161706AB
:1006100018060906089500240A94121613061406F3
:1006200005060895092E0394000C11F4882352F056
:10063000BB0F40F4BF2B11F460FF04C06F5F7F4F0E
:100640008F4F9F4F0895CF93DF93CDB7DEB7AE01A5
:100650004A5F5F4FFA0161917191AF01809122026F
:10066000909123020E943703DF91CF9108952F923A
:100670003F924F925F926F927F928F929F92AF9232
:10068000BF92CF92DF92EF92FF920F931F93CF937F
:10069000DF93CDB7DEB72B970FB6F894DEBF0FBE52
:1006A000CDBF6C017B018A01FC0117821682838118
:1006B00081FFCCC1CE0101963C01F6019381F70187
:1006C00093FD859193FF81917F01882309F4BAC13D
:1006D000853239F493FD859193FF81917F018532B5
:1006E00029F4B60190E00E945705E7CF912C212C08
:1006F000312CFFE1F315D8F08B3279F038F48032E9
:1007000079F08332A1F4232D20611DC08D3261F078
:10071000803369F4232D216016C0832D8260382E2A
:10072000E32DE4603E2E2AC0F32DF8601DC037FC97
:100730002DC020ED280F2A3040F08E32B9F436FC5F
:1007400081C1232D2064322E19C036FE06C08AE0F6
:10075000989E200D1124922E11C0EAE02E9E200DAD
:100760001124222EF32DF0623F2E08C08C3621F486
:10077000832D8068382E02C0883641F4F70193FD3E
:10078000859193FF81917F018111B3CF982F9F7D38
:100790009554933028F40C5F1F4F9FE399830DC04D
:1007A000833631F0833771F0833509F059C021C0A9
:1007B000F801808189830E5F1F4F88248394912CD8
:1007C000530113C02801F2E04F0E511CF801A08024
:1007D000B18036FE03C0692D70E002C06FEF7FEF7D
:1007E000C5010E944C054C018201F32DFF773F2E7D
:1007F00016C0280122E0420E511CF801A080B180F1
:1008000036FE03C0692D70E002C06FEF7FEFC501B7
:100810000E9441054C01F32DF0683F2E820133FC0C
:100820001BC0822D90E088169906B0F4B60180E2D4
:1008300090E00E9457052A94F4CFF50137FC85918A
:1008400037FE81915F01B60190E00E9457052110AB
:100850002A9421E0821A91088114910471F7E8C06A
:10086000843611F0893641F5F80137FE07C0608102
:100870007181828193810C5F1F4F08C060817181FB
:10088000072E000C880B990B0E5F1F4FF32DFF7680
:100890003F2E97FF09C090958095709561957F4F89
:1008A0008F4F9F4FF0683F2E2AE030E0A3010E9457
:1008B0009305882E861845C0853731F4232D2F7E69
:1008C000B22E2AE030E025C0932D997FB92E8F36C5
:1008D000C1F018F4883579F0B5C0803719F0883741
:1008E00021F0B0C0E92FE061BE2EB4FE0DC0FB2D9B
:1008F000F460BF2E09C034FE0AC0292F2660B22E34
:1009000006C028E030E005C020E130E002C020E170
:1009100032E0F801B7FE07C0608171818281938166
:100920000C5F1F4F06C06081718180E090E00E5F18
:100930001F4FA3010E949305882E8618FB2DFF7779
:100940003F2E36FE0DC0232D2E7FA22E891458F483
:1009500034FE0BC032FC09C0832D8E7EA82E05C04C
:10096000B82CA32C03C0B82C01C0B92CA4FE0FC016
:10097000FE01E80DF11D8081803321F49A2D997ECE
:10098000A92E09C0A2FE06C0B394B39404C08A2D58
:10099000867809F0B394A3FC11C0A0FE06C0B2147F
:1009A00088F4280C922C9B180EC0B21460F4B60187
:1009B00080E290E00E945705B394F7CFB21418F488
:1009C0002B1802C0982C212CA4FE10C0B60180E385
:1009D00090E00E945705A2FE17C0A1FC03C088E763
:1009E00090E002C088E590E0B6010CC08A2D8678C0
:1009F00059F0A1FE02C08BE201C080E2A7FC8DE2AB
:100A0000B60190E00E945705891438F4B60180E3DE
:100A100090E00E9457059A94F7CF8A94F301E80D6D
:100A2000F11D8081B60190E00E9457058110F5CF3D
:100A3000222009F442CEB60180E290E00E945705E0
:100A40002A94F6CFF6018681978102C08FEF9FEF3F
:100A50002B960FB6F894DEBF0FBECDBFDF91CF91BE
:100A60001F910F91FF90EF90DF90CF90BF90AF90CC
:100A70009F908F907F906F905F904F903F902F90BE
:100A80000895FC010590615070400110D8F78095E1
:100A900090958E0F9F1F0895FC016150704001904A
:100AA0000110D8F7809590958E0F9F1F08950F9392
:100AB0001F93CF93DF93FB01238121FD03C08FEFB1
:100AC0009FEF2CC022FF16C04681578124813581BB
:100AD0004217530744F4A081B1819D012F5F3F4F1E
:100AE000318320838C93268137812F5F3F4F37835B
:100AF000268314C08B01EC01FB010084F185E02DFD
:100B00001995892BE1F6D80116968D919C9117972E
:100B1000019617969C938E931697CE01DF91CF91F5
:100B20001F910F910895FA01AA27283051F1203121
:100B300081F1E8946F936E7F6E5F7F4F8F4F9F4F71
:100B4000AF4FB1E03ED0B4E03CD0670F781F891FB3
:100B50009A1FA11D680F791F8A1F911DA11D6A0F81
:100B6000711D811D911DA11D20D009F468943F9134
:100B70002AE0269F11243019305D3193DEF6CF0133
:100B80000895462F4770405D4193B3E00FD0C9F7F9
:100B9000F6CF462F4F70405D4A3318F0495D31FD66
:100BA0004052419302D0A9F7EACFB4E0A6959795B9
:100BB000879577956795BA95C9F70097610571058F
:100BC00008959B01AC010A2E0694579547953795D9
:100BD0002795BA95C9F7620F731F841F951FA01D33
:060BE0000895F894FFCF18
:100BE6000000000200000000DD0100000000737735
:100BF6006974636820253032782C2025640A000049
:00000001FF
