:100000000C9474000C9495000C9495000C9495003D
:100010000C9495000C9495000C9495000C9495000C
:100020000C9495000C9495000C9495000C949500FC
:100030000C9495000C9495000C9495000C949500EC
:100040000C9495000C9495000C9495000C949500DC
:100050000C9495000C9495000C9495000C949500CC
:100060000C9495000C9495000C9495000C949500BC
:100070000C9495000C9495000C9495000C949500AC
:100080000C9495000C9495000C9495000C9495009C
:100090000C9495000C9495000C9495000C9495008C
:1000A0000C9495000C9495000C9495000C9495007C
:1000B0000C9495000C9495000C9495000C9495006C
:1000C0000C9495000C9495000C9495000C9495005C
:1000D0000C9495000C9495000C9495000C9495004C
:1000E0000C9495000C94970011241FBECFEFD1E221
:1000F000DEBFCDBF00E00CBF12E0A0E0B2E0E2EE58
:10010000F7E000E00BBF02C007900D92A234B107E8
:10011000D9F722E0A2E4B2E001C01D92A834B207F0
:10012000E1F70E94EA000C94EF030C9400008A307F
:1001300049F09091C00095FFFCCF8093C60080E00D
:1001400090E008959091C00095FFFCCF9DE09093C2
:10015000C600EFCF9093C5008093C40086E08093E3
:10016000C20088E98093C10008959091C00095FF76
:10017000FCCF8093C60008958091C00087FFFCCF1C
:100180008091C60008958091C000881F8827881F2D
:100190000895FC012081222351F031969091C000F6
:1001A00095FFFCCF2093C60021912111F7CF089530
:1001B00080E092E090934502809344021092C50043
:1001C00082E38093C40086E08093C20088E9809334
:1001D000C10008950E94D80084B18C7F84B985B194
:1001E000836085B980E0E12CF12C0FE112E0C3B10E
:1001F000C3708C17F1F0E82FEE0FEE0FEC2BF0E050
:10020000E15FFD4F9081E90EF11C97FDFA94FF929A
:10021000EF921F92CF931F928F931F930F930E9481
:1002200021018DB79EB708960FB6F8949EBF0FBEFA
:100230008DBF8FE99FE00197F1F700C000008C2F80
:10024000D6CFCF93DF93CDB7DEB7AE014A5F5F4F16
:10025000FA0161917191AF01809144029091450240
:100260000E943501DF91CF9108952F923F924F92D6
:100270005F926F927F928F929F92AF92BF92CF9236
:10028000DF92EF92FF920F931F93CF93DF93CDB73F
:10029000DEB72B970FB6F894DEBF0FBECDBF6C0153
:1002A0007B018A01FC0117821682838181FFCCC108
:1002B000CE0101963C01F6019381F70193FD8591F2
:1002C00093FF81917F01882309F4BAC1853239F403
:1002D00093FD859193FF81917F01853229F4B601C9
:1002E00090E00E945503E7CF912C212C312CFFE1A7
:1002F000F315D8F08B3279F038F4803279F083320C
:10030000A1F4232D20611DC08D3261F0803369F48A
:10031000232D216016C0832D8260382EE32DE460EA
:100320003E2E2AC0F32DF8601DC037FC2DC020EDF5
:10033000280F2A3040F08E32B9F436FC81C1232DCB
:100340002064322E19C036FE06C08AE0989E200D29
:100350001124922E11C0EAE02E9E200D1124222E8F
:10036000F32DF0623F2E08C08C3621F4832D806877
:10037000382E02C0883641F4F70193FD859193FF32
:1003800081917F018111B3CF982F9F7D9554933038
:1003900028F40C5F1F4F9FE399830DC0833631F023
:1003A000833771F0833509F059C021C0F80180818D
:1003B00089830E5F1F4F88248394912C530113C0AF
:1003C0002801F2E04F0E511CF801A080B18036FEEA
:1003D00003C0692D70E002C06FEF7FEFC5010E947E
:1003E0004A034C018201F32DFF773F2E16C02801EE
:1003F00022E0420E511CF801A080B18036FE03C0FD
:10040000692D70E002C06FEF7FEFC5010E943F03CE
:100410004C01F32DF0683F2E820133FC1BC0822D6E
:1004200090E088169906B0F4B60180E290E00E9450
:1004300055032A94F4CFF50137FC859137FE81915D
:100440005F01B60190E00E94550321102A9421E03B
:10045000821A91088114910471F7E8C0843611F072
:10046000893641F5F80137FE07C0608171818281CC
:1004700093810C5F1F4F08C060817181072E000CB3
:10048000880B990B0E5F1F4FF32DFF763F2E97FFC2
:1004900009C090958095709561957F4F8F4F9F4FC4
:1004A000F0683F2E2AE030E0A3010E949103882EDD
:1004B000861845C0853731F4232D2F7EB22E2AE0D1
:1004C00030E025C0932D997FB92E8F36C1F018F4F6
:1004D000883579F0B5C0803719F0883721F0B0C081
:1004E000E92FE061BE2EB4FE0DC0FB2DF460BF2EDF
:1004F00009C034FE0AC0292F2660B22E06C028E0AB
:1005000030E005C020E130E002C020E132E0F80137
:10051000B7FE07C060817181828193810C5F1F4F9C
:1005200006C06081718180E090E00E5F1F4FA301E3
:100530000E949103882E8618FB2DFF773F2E36FEF2
:100540000DC0232D2E7FA22E891458F434FE0BC02B
:1005500032FC09C0832D8E7EA82E05C0B82CA32C9A
:1005600003C0B82C01C0B92CA4FE0FC0FE01E80DD9
:10057000F11D8081803321F49A2D997EA92E09C026
:10058000A2FE06C0B394B39404C08A2D867809F005
:10059000B394A3FC11C0A0FE06C0B21488F4280CCA
:1005A000922C9B180EC0B21460F4B60180E290E069
:1005B0000E945503B394F7CFB21418F42B1802C05D
:1005C000982C212CA4FE10C0B60180E390E00E947C
:1005D0005503A2FE17C0A1FC03C088E790E002C04B
:1005E00088E590E0B6010CC08A2D867859F0A1FE0E
:1005F00002C08BE201C080E2A7FC8DE2B60190E070
:100600000E945503891438F4B60180E390E00E94FB
:1006100055039A94F7CF8A94F301E80DF11D808178
:10062000B60190E00E9455038110F5CF222009F415
:1006300042CEB60180E290E00E9455032A94F6CFA4
:10064000F6018681978102C08FEF9FEF2B960FB640
:10065000F894DEBF0FBECDBFDF91CF911F910F91F8
:10066000FF90EF90DF90CF90BF90AF909F908F90D2
:100670007F906F905F904F903F902F900895FC0176
:100680000590615070400110D8F7809590958E0FBD
:100690009F1F0895FC016150704001900110D8F730
:1006A000809590958E0F9F1F08950F931F93CF9362
:1006B000DF93FB01238121FD03C08FEF9FEF2CC04F
:1006C00022FF16C046815781248135814217530786
:1006D00044F4A081B1819D012F5F3F4F318320837E
:1006E0008C93268137812F5F3F4F3783268314C039
:1006F0008B01EC01FB010084F185E02D1995892B1C
:10070000E1F6D80116968D919C9117970196179650
:100710009C938E931697CE01DF91CF911F910F91ED
:100720000895FA01AA27283051F1203181F1E89487
:100730006F936E7F6E5F7F4F8F4F9F4FAF4FB1E0D4
:100740003ED0B4E03CD0670F781F891F9A1FA11DCF
:10075000680F791F8A1F911DA11D6A0F711D811DD0
:10076000911DA11D20D009F468943F912AE0269F95
:1007700011243019305D3193DEF6CF010895462FF4
:100780004770405D4193B3E00FD0C9F7F6CF462FD5
:100790004F70405D4A3318F0495D31FD405241933E
:1007A00002D0A9F7EACFB4E0A695979587957795FB
:1007B0006795BA95C9F700976105710508959B0182
:1007C000AC010A2E06945795479537952795BA950B
:1007D000C9F7620F731F841F951FA01D0895F89419
:0207E000FFCF49
:1007E200000000020000000097000000000003006B
:1007F20001FF00FF000001010000FF00FF01007384
:1008020074617465206368616E6765202578202DA8
:100812002D3E2025782C2076616C75653A20257551
:020822000A00CA
:00000001FF
